:020000040000FA
:10000000803102288731E52F8631422E8631762EC7
:100010008631AA2E8631DE2E8731122F87313B2F73
:080020008731642F87318D2F19
:10063800383484316C2483318039222B08006400DB
:1006480080010131890B242B0034FE0012001E00AA
:10065800FE0B2A2B0034F8007808803E8331D7231C
:1006680083310800F8007808083E8331D7238331A6
:100678000800603051018D008F0191010530930011
:100688009201080001308331D72383310030833150
:100698002F23833108004F01960197019801990192
:1006A8009A019B019C019D0108008331B02383318D
:1006B800430191145F2B9118622B632B5F2B642BE2
:1006C80008008331B0238331430111146B2B1118B7
:1006D8006E2B6F2B6B2B702B080083314F238331CC
:1006E8008431B124833183313D23833183318E2397
:1006F800833108008331B023833143011115400150
:10070800E701E801872B430111198B2B8C2B872BD1
:100718008D2B08004301901A922B932B9D2B8F0150
:1007280028309000910127308D009D2B9D2B9D2B0B
:100738009D2B0800F8002A308331D723833172308B
:100748008331D723833178088331EC2383312830F0
:100758008331D723833108004001E701E801B52B35
:10076800B52B43010F0C890C0139F00011081F3912
:100778007004031DC02BC12BB52BC22B0800F4003D
:100788008331652383317830853138258331740886
:100798008531382583317308853138258331833194
:1007A8007E2383310800F700DA2BDA2B83311D23EF
:1007B8008331013A0319E12BE22BDA2BE32B77087B
:1007C800F6007608F30080308331C32383310800B4
:1007D800F700EF2BEF2B83311D238331013A0319E7
:1007E800F62BF72BEF2BF82B7708F6007608F3009B
:1007F80040308331C32383310800780884007908A6
:10080800850000088331EC2384310130F80700307B
:10081800F93D78088400790885001200031D152C1D
:10082800162C012C172C0800F301F401272C063094
:10083800F2003030890B1E2CF20B1E2C00320130D6
:10084800F3070030F43D71087402031D2D2C700865
:100858007302031C302C312C1B2C322C0800F9009D
:1008680039308331D72384317908F8000430F836D9
:10087800890B3B2C780854388331D7238431790885
:100888000F3970388331D72384317D088331D723DA
:1008980084310800F034F134F234F334F434F534AC
:1008A800F634F734F834F93400341034113412348F
:1008B80013341434153416341734183419340034F6
:1008C800043404340434043415340E340434003449
:1008D80083316523843178308531382584318030FF
:1008E80085313825843183315923843179308531F4
:1008F80038258431003085316F258431F40074083F
:10090800F50083317E23843175088A2C0800F900AC
:1009180038307906031D912C922C9B2C7908833151
:10092800D72384313830F8007808FD00B02C3C30EB
:100938008331D72384313A308331D72384317908FE
:100948008331D72384313C308331D72384313C3001
:10095800F8007808FD00B02C080040019801043028
:100968009A003F3092003930940039307E01CE0031
:100978000730B8003030B900CF01BA01D0013730A4
:10098800BB003F30D1003F30BC003F30D2000530C3
:100998007D01C50014307E019400133095000430A9
:1009A8007D01C60008003A308331D72384310930ED
:1009B8008331D723843106308331D72384311E30E5
:1009C8008331D723843139308331D72384311B30A5
:1009D8008331D72384316E308331D7238431563025
:1009E8008331D72384317A308331D72384317D080A
:1009F8008331D723843183314623843107308331CF
:100A0800362384310800FB00FC017B08FA00023021
:100A1800FA35FF3E031D0C2D7A35403E8331D7232E
:100A28008531FC0108307C02031C1B2D1C2D1E2D5A
:100A3800332D332D7C087907FA007A088600870160
:100A480001088331EC2385310130FA007A08FC076C
:100A580008307C02031C312D322D1E2D332D003021
:100A680083312F2385310800F2008331B02385318B
:100A7800720843018C00901F422D432D462D6E2D88
:100A88006E2D6E2D0F301005F10008307106031918
:100A98004E2D4F2D592D0F301005F1000B307106DA
:100AA800031D572D582D6E2D592D4001E701E801E2
:100AB8005D2D43010F18612D622D5D2D632D83314E
:100AC800B0238531430111086E2D6E2D6E2D6E2DCC
:100AD8006E2D6E2D0800F200F3018331B0238531AD
:100AE8000F3043011005F1000830710603197D2D00
:100AF8007E2D872D0F301005F1000B307106031D78
:100B0800862D872D892D9115892D4001E701E80152
:100B18008D2D43010F1C912D922D8D2D932D40016C
:100B2800E701E80143010C08F1007108F300833183
:100B3800B02385317203031DA22DA32DB12D4301CE
:100B4800911211164001E701E801AA2D4301111A7B
:100B5800AE2DAF2DAA2DBF2DBF2D43019116111615
:100B68004001E701E801B82D4301111ABC2DBD2D44
:100B7800B82DBF2DBF2D7308C12D0800B6308600D3
:100B8800003087003830840000308500083040018C
:100B9800A00016001A00A00BCD2DC901C801AB306A
:100BA80086000030870022308400003085000B303A
:100BB800A00016001A00A00BDD2DA0308600003022
:100BC80087002D308400003085000B30A00016000F
:100BD8001A00A00BEB2D833171238531F32D4001D1
:100BE800C90107304902031CFA2DFB2DFD2D162ED5
:100BF800162E4903FF3A063E383E86008701010853
:100C0800A0004908403E8600870120088100013085
:100C1800A0002008C90707304902031C142E152E0E
:100C2800FD2D162E8431D724853138304001A0009F
:100C38002008F90000308531072585314030400112
:100C4800A0002008F90002308531072585310430DD
:100C580083313623853123304001A0002008C900A4
:100C6800352E40011A0C0139A0000130A006A00D54
:100C78001A082006FD3920069A00B02F3830843132
:100C88008B248531833146238531003083312F23EE
:100C980085318430F8008830F900843101248531A9
:100CA800203083312F2385319630F8008830F900C1
:100CB800843101248531403083312F2385318E30B2
:100CC800F8008830F900843101248531603083319F
:100CD8002F2385312030F8008830F9008431012431
:100CE8008531C32F833146238531003083319E23DC
:100CF8008531003083312F2385317930F8008830F1
:100D0800F900843101248531203083312F23853146
:100D18003730F8008830F9008431012485314030BB
:100D280083312F2385312230F8000030F9008431D7
:100D380001248531603083312F2385312D30F8002F
:100D48000030F900843101248531C32F83314623D3
:100D58008531043083319E238531003083312F2340
:100D680085317930F8008830F900843101248531E3
:100D7800203083312F2385314230F8008830F90044
:100D8800843101248531403083312F23853122304D
:100D9800F8000030F9008431012485316030833156
:100DA8002F2385312D30F8000030F90084310124DB
:100DB8008531C32F8331462385310C3083319E23FF
:100DC8008531003083312F2385317930F800883020
:100DD800F900843101248531203083312F23853176
:100DE8004D30F8008830F9008431012485314030D5
:100DF80083312F2385312230F8000030F900843107
:100E080001248531603083312F2385312D30F8005E
:100E18000030F900843101248531C32F8331462302
:100E280085311E3084318B248531003083312F2366
:100E380085315830F8008830F90084310124853133
:100E4800203083312F2385316330F8008830F90052
:100E5800843101248531403083312F2385312C3072
:100E6800F8008830F900843101248531C32F83319B
:100E780046238531163084318B2485310030833107
:100E88002F2385316330F8008830F900843101243C
:100E98008531203083312F2385315830F800883050
:100EA800F900843101248531403083312F23853185
:100EB8002C30F8008830F900843101248531C32FA3
:100EC800833146238531123084318B2485310030BB
:100ED80083312F2385316330F8008830F90084315D
:100EE80001248531203083312F2385312C30F800BF
:100EF8008830F900843101248531403083312F2333
:100F080085315830F8008830F90084310124853162
:100F1800C32F8331462385311A3084318B248531A0
:100F2800003083312F2385315830F8008830F9009C
:100F3800843101248531203083312F2385316E306F
:100F4800F8008830F9008431012485314001C80156
:100F5800C32FC801C32FC32F4808C80AA000A10186
:100F68002108003A0319B92FAD2F20088400083052
:100F780004020318AD2F80310435043E820033305B
:100F880040014902031CC92FCA2FCF2F2330A000CC
:100F98002008C900CF2F4908843133248531013016
:100FA8004001A0002008C907D030F0000730F10048
:100FB800843118248531352E352EF32DF32D8031CB
:100FC800022883311C238731FD004E308400843091
:100FD8008500A0308600003087001E308331292329
:100FE80087314A3084000030850024308331232340
:100FF800873140018531C22D00340034003400347B
:101008000034003400340034003400340034003438
:101018000034003400340034003400340034003428
:101028000034003400340034003400340034003418
:101038000034003400340034663475346E3463345C
:1010480069346F346E3461346E3464346F34003410
:101058002D342D342D342D342D342D342D342D3480
:101068002D342D34003452344F344D3441342D3422
:101078004534753472346F343134003452344F345B
:101088004D3442342D344534753472346F3432342F
:10109800003452344F344D3442342D344A346134A0
:1010A800703461346E34003435342E3432346D3457
:1010B8006D3420346334683461347234003432342B
:1010C8002E3436346D346D342034633468346134EE
:1010D8007234003442346934673420344C34653413
:1010E800743474346534723400343334633468349B
:1010F8006134723420347334653474347334003496
:101108004F346C34613420346D3475346E34643447
:101118006F34003464346934733470346C3461343B
:10112800793400346F346C346834613420346F346B
:02113800003481
:020000040001F9
:0A000E00EC3FFF3F9F3FFF3FFF3F25
:00000001FF
